{
  "_format": "hh-sol-artifact-1",
  "contractName": "CertiChain",
  "sourceName": "contracts/CertiChain.sol",
  "abi": [
    {
      "inputs": [],
      "stateMutability": "nonpayable",
      "type": "constructor"
    },
    {
      "anonymous": false,
      "inputs": [
        {
          "indexed": true,
          "internalType": "address",
          "name": "certifier",
          "type": "address"
        },
        {
          "indexed": true,
          "internalType": "address",
          "name": "student",
          "type": "address"
        },
        {
          "indexed": false,
          "internalType": "string",
          "name": "ipfsHash",
          "type": "string"
        },
        {
          "indexed": false,
          "internalType": "uint256",
          "name": "timestamp",
          "type": "uint256"
        }
      ],
      "name": "FileCertified",
      "type": "event"
    },
    {
      "inputs": [
        {
          "internalType": "address",
          "name": "certifier",
          "type": "address"
        }
      ],
      "name": "addAuthorizedCertifier",
      "outputs": [],
      "stateMutability": "nonpayable",
      "type": "function"
    },
    {
      "inputs": [
        {
          "internalType": "string",
          "name": "name",
          "type": "string"
        },
        {
          "internalType": "string",
          "name": "organization",
          "type": "string"
        },
        {
          "internalType": "string",
          "name": "details",
          "type": "string"
        },
        {
          "internalType": "address",
          "name": "student",
          "type": "address"
        },
        {
          "internalType": "string",
          "name": "ipfsLink",
          "type": "string"
        },
        {
          "internalType": "string",
          "name": "ipfsHash",
          "type": "string"
        }
      ],
      "name": "certifyFile",
      "outputs": [],
      "stateMutability": "payable",
      "type": "function"
    },
    {
      "inputs": [],
      "name": "getAuthorizedCertifiers",
      "outputs": [
        {
          "internalType": "address[]",
          "name": "",
          "type": "address[]"
        }
      ],
      "stateMutability": "view",
      "type": "function"
    },
    {
      "inputs": [
        {
          "internalType": "string",
          "name": "ipfsHash",
          "type": "string"
        },
        {
          "internalType": "address",
          "name": "person",
          "type": "address"
        }
      ],
      "name": "getCertificateByHash",
      "outputs": [
        {
          "components": [
            {
              "internalType": "string",
              "name": "name",
              "type": "string"
            },
            {
              "internalType": "string",
              "name": "organization",
              "type": "string"
            },
            {
              "internalType": "string",
              "name": "details",
              "type": "string"
            },
            {
              "internalType": "address",
              "name": "certifier",
              "type": "address"
            },
            {
              "internalType": "address",
              "name": "student",
              "type": "address"
            },
            {
              "internalType": "string",
              "name": "ipfsHash",
              "type": "string"
            },
            {
              "internalType": "string",
              "name": "ipfsLink",
              "type": "string"
            },
            {
              "internalType": "uint256",
              "name": "timestamp",
              "type": "uint256"
            }
          ],
          "internalType": "struct CertiChain.Certificate",
          "name": "",
          "type": "tuple"
        }
      ],
      "stateMutability": "view",
      "type": "function"
    },
    {
      "inputs": [],
      "name": "getCertificatesByStudent",
      "outputs": [
        {
          "components": [
            {
              "internalType": "string",
              "name": "name",
              "type": "string"
            },
            {
              "internalType": "string",
              "name": "organization",
              "type": "string"
            },
            {
              "internalType": "string",
              "name": "details",
              "type": "string"
            },
            {
              "internalType": "address",
              "name": "certifier",
              "type": "address"
            },
            {
              "internalType": "address",
              "name": "student",
              "type": "address"
            },
            {
              "internalType": "string",
              "name": "ipfsHash",
              "type": "string"
            },
            {
              "internalType": "string",
              "name": "ipfsLink",
              "type": "string"
            },
            {
              "internalType": "uint256",
              "name": "timestamp",
              "type": "uint256"
            }
          ],
          "internalType": "struct CertiChain.Certificate[]",
          "name": "",
          "type": "tuple[]"
        }
      ],
      "stateMutability": "view",
      "type": "function"
    },
    {
      "inputs": [
        {
          "internalType": "address",
          "name": "certifier",
          "type": "address"
        }
      ],
      "name": "removeAuthorizedCertifier",
      "outputs": [],
      "stateMutability": "nonpayable",
      "type": "function"
    }
  ],
  "bytecode": "0x608060405234801561001057600080fd5b50336000806101000a81548173ffffffffffffffffffffffffffffffffffffffff021916908373ffffffffffffffffffffffffffffffffffffffff160217905550611ec3806100606000396000f3fe6080604052600436106100555760003560e01c80631fb9b7f51461005a57806348189ca414610083578063970d596f146100c0578063cdc4f8a5146100dc578063dfb15e4114610105578063f7bab76c14610130575b600080fd5b34801561006657600080fd5b50610081600480360381019061007c9190611396565b61015b565b005b34801561008f57600080fd5b506100aa60048036038101906100a59190611509565b6103d2565b6040516100b791906116e1565b60405180910390f35b6100da60048036038101906100d59190611703565b6108a0565b005b3480156100e857600080fd5b5061010360048036038101906100fe9190611396565b610c0a565b005b34801561011157600080fd5b5061011a610d55565b60405161012791906119aa565b60405180910390f35b34801561013c57600080fd5b50610145611182565b6040516101529190611a7b565b60405180910390f35b60008054906101000a900473ffffffffffffffffffffffffffffffffffffffff1673ffffffffffffffffffffffffffffffffffffffff163373ffffffffffffffffffffffffffffffffffffffff16146101e9576040517f08c379a00000000000000000000000000000000000000000000000000000000081526004016101e090611b20565b60405180910390fd5b6000600160008373ffffffffffffffffffffffffffffffffffffffff1673ffffffffffffffffffffffffffffffffffffffff16815260200190815260200160002060006101000a81548160ff02191690831515021790555060005b6003805490508110156103ce578173ffffffffffffffffffffffffffffffffffffffff166003828154811061027c5761027b611b40565b5b9060005260206000200160009054906101000a900473ffffffffffffffffffffffffffffffffffffffff1673ffffffffffffffffffffffffffffffffffffffff1614156103bb57600360016003805490506102d79190611b9e565b815481106102e8576102e7611b40565b5b9060005260206000200160009054906101000a900473ffffffffffffffffffffffffffffffffffffffff166003828154811061032757610326611b40565b5b9060005260206000200160006101000a81548173ffffffffffffffffffffffffffffffffffffffff021916908373ffffffffffffffffffffffffffffffffffffffff160217905550600380548061038157610380611bd2565b5b6001900381819060005260206000200160006101000a81549073ffffffffffffffffffffffffffffffffffffffff021916905590556103ce565b80806103c690611c01565b915050610244565b5050565b6103da611210565b60005b600260008473ffffffffffffffffffffffffffffffffffffffff1673ffffffffffffffffffffffffffffffffffffffff1681526020019081526020016000208054905081101561085e576000600260008573ffffffffffffffffffffffffffffffffffffffff1673ffffffffffffffffffffffffffffffffffffffff168152602001908152602001600020828154811061047a57610479611b40565b5b9060005260206000209060080201604051806101000160405290816000820180546104a490611c79565b80601f01602080910402602001604051908101604052809291908181526020018280546104d090611c79565b801561051d5780601f106104f25761010080835404028352916020019161051d565b820191906000526020600020905b81548152906001019060200180831161050057829003601f168201915b5050505050815260200160018201805461053690611c79565b80601f016020809104026020016040519081016040528092919081815260200182805461056290611c79565b80156105af5780601f10610584576101008083540402835291602001916105af565b820191906000526020600020905b81548152906001019060200180831161059257829003601f168201915b505050505081526020016002820180546105c890611c79565b80601f01602080910402602001604051908101604052809291908181526020018280546105f490611c79565b80156106415780601f1061061657610100808354040283529160200191610641565b820191906000526020600020905b81548152906001019060200180831161062457829003601f168201915b505050505081526020016003820160009054906101000a900473ffffffffffffffffffffffffffffffffffffffff1673ffffffffffffffffffffffffffffffffffffffff1673ffffffffffffffffffffffffffffffffffffffff1681526020016004820160009054906101000a900473ffffffffffffffffffffffffffffffffffffffff1673ffffffffffffffffffffffffffffffffffffffff1673ffffffffffffffffffffffffffffffffffffffff16815260200160058201805461070690611c79565b80601f016020809104026020016040519081016040528092919081815260200182805461073290611c79565b801561077f5780601f106107545761010080835404028352916020019161077f565b820191906000526020600020905b81548152906001019060200180831161076257829003601f168201915b5050505050815260200160068201805461079890611c79565b80601f01602080910402602001604051908101604052809291908181526020018280546107c490611c79565b80156108115780601f106107e657610100808354040283529160200191610811565b820191906000526020600020905b8154815290600101906020018083116107f457829003601f168201915b50505050508152602001600782015481525050905084805190602001208160a0015180519060200120141561084a57809250505061089a565b50808061085690611c01565b9150506103dd565b506040517f08c379a000000000000000000000000000000000000000000000000000000000815260040161089190611cf7565b60405180910390fd5b92915050565b600160003373ffffffffffffffffffffffffffffffffffffffff1673ffffffffffffffffffffffffffffffffffffffff16815260200190815260200160002060009054906101000a900460ff1661092c576040517f08c379a000000000000000000000000000000000000000000000000000000000815260040161092390611d89565b60405180910390fd5b600073ffffffffffffffffffffffffffffffffffffffff168373ffffffffffffffffffffffffffffffffffffffff16141561099c576040517f08c379a000000000000000000000000000000000000000000000000000000000815260040161099390611df5565b60405180910390fd5b60006040518061010001604052808881526020018781526020018681526020013373ffffffffffffffffffffffffffffffffffffffff1681526020018573ffffffffffffffffffffffffffffffffffffffff168152602001838152602001848152602001428152509050600260008573ffffffffffffffffffffffffffffffffffffffff1673ffffffffffffffffffffffffffffffffffffffff1681526020019081526020016000208190806001815401808255809150506001900390600052602060002090600802016000909190919091506000820151816000019080519060200190610a8b929190611281565b506020820151816001019080519060200190610aa8929190611281565b506040820151816002019080519060200190610ac5929190611281565b5060608201518160030160006101000a81548173ffffffffffffffffffffffffffffffffffffffff021916908373ffffffffffffffffffffffffffffffffffffffff16021790555060808201518160040160006101000a81548173ffffffffffffffffffffffffffffffffffffffff021916908373ffffffffffffffffffffffffffffffffffffffff16021790555060a0820151816005019080519060200190610b70929190611281565b5060c0820151816006019080519060200190610b8d929190611281565b5060e0820151816007015550508373ffffffffffffffffffffffffffffffffffffffff163373ffffffffffffffffffffffffffffffffffffffff167f7fa2379677782874d0dfd2981d5ad74b871de3f32334ea68a5fb0d3c756ab6008442604051610bf9929190611e5d565b60405180910390a350505050505050565b60008054906101000a900473ffffffffffffffffffffffffffffffffffffffff1673ffffffffffffffffffffffffffffffffffffffff163373ffffffffffffffffffffffffffffffffffffffff1614610c98576040517f08c379a0000000000000000000000000000000000000000000000000000000008152600401610c8f90611b20565b60405180910390fd5b60018060008373ffffffffffffffffffffffffffffffffffffffff1673ffffffffffffffffffffffffffffffffffffffff16815260200190815260200160002060006101000a81548160ff0219169083151502179055506003819080600181540180825580915050600190039060005260206000200160009091909190916101000a81548173ffffffffffffffffffffffffffffffffffffffff021916908373ffffffffffffffffffffffffffffffffffffffff16021790555050565b6060600260003373ffffffffffffffffffffffffffffffffffffffff1673ffffffffffffffffffffffffffffffffffffffff168152602001908152602001600020805480602002602001604051908101604052809291908181526020016000905b82821015611179578382906000526020600020906008020160405180610100016040529081600082018054610dea90611c79565b80601f0160208091040260200160405190810160405280929190818152602001828054610e1690611c79565b8015610e635780601f10610e3857610100808354040283529160200191610e63565b820191906000526020600020905b815481529060010190602001808311610e4657829003601f168201915b50505050508152602001600182018054610e7c90611c79565b80601f0160208091040260200160405190810160405280929190818152602001828054610ea890611c79565b8015610ef55780601f10610eca57610100808354040283529160200191610ef5565b820191906000526020600020905b815481529060010190602001808311610ed857829003601f168201915b50505050508152602001600282018054610f0e90611c79565b80601f0160208091040260200160405190810160405280929190818152602001828054610f3a90611c79565b8015610f875780601f10610f5c57610100808354040283529160200191610f87565b820191906000526020600020905b815481529060010190602001808311610f6a57829003601f168201915b505050505081526020016003820160009054906101000a900473ffffffffffffffffffffffffffffffffffffffff1673ffffffffffffffffffffffffffffffffffffffff1673ffffffffffffffffffffffffffffffffffffffff1681526020016004820160009054906101000a900473ffffffffffffffffffffffffffffffffffffffff1673ffffffffffffffffffffffffffffffffffffffff1673ffffffffffffffffffffffffffffffffffffffff16815260200160058201805461104c90611c79565b80601f016020809104026020016040519081016040528092919081815260200182805461107890611c79565b80156110c55780601f1061109a576101008083540402835291602001916110c5565b820191906000526020600020905b8154815290600101906020018083116110a857829003601f168201915b505050505081526020016006820180546110de90611c79565b80601f016020809104026020016040519081016040528092919081815260200182805461110a90611c79565b80156111575780601f1061112c57610100808354040283529160200191611157565b820191906000526020600020905b81548152906001019060200180831161113a57829003601f168201915b5050505050815260200160078201548152505081526020019060010190610db6565b50505050905090565b6060600380548060200260200160405190810160405280929190818152602001828054801561120657602002820191906000526020600020905b8160009054906101000a900473ffffffffffffffffffffffffffffffffffffffff1673ffffffffffffffffffffffffffffffffffffffff16815260200190600101908083116111bc575b5050505050905090565b604051806101000160405280606081526020016060815260200160608152602001600073ffffffffffffffffffffffffffffffffffffffff168152602001600073ffffffffffffffffffffffffffffffffffffffff1681526020016060815260200160608152602001600081525090565b82805461128d90611c79565b90600052602060002090601f0160209004810192826112af57600085556112f6565b82601f106112c857805160ff19168380011785556112f6565b828001600101855582156112f6579182015b828111156112f55782518255916020019190600101906112da565b5b5090506113039190611307565b5090565b5b80821115611320576000816000905550600101611308565b5090565b6000604051905090565b600080fd5b600080fd5b600073ffffffffffffffffffffffffffffffffffffffff82169050919050565b600061136382611338565b9050919050565b61137381611358565b811461137e57600080fd5b50565b6000813590506113908161136a565b92915050565b6000602082840312156113ac576113ab61132e565b5b60006113ba84828501611381565b91505092915050565b600080fd5b600080fd5b6000601f19601f8301169050919050565b7f4e487b7100000000000000000000000000000000000000000000000000000000600052604160045260246000fd5b611416826113cd565b810181811067ffffffffffffffff82111715611435576114346113de565b5b80604052505050565b6000611448611324565b9050611454828261140d565b919050565b600067ffffffffffffffff821115611474576114736113de565b5b61147d826113cd565b9050602081019050919050565b82818337600083830152505050565b60006114ac6114a784611459565b61143e565b9050828152602081018484840111156114c8576114c76113c8565b5b6114d384828561148a565b509392505050565b600082601f8301126114f0576114ef6113c3565b5b8135611500848260208601611499565b91505092915050565b600080604083850312156115205761151f61132e565b5b600083013567ffffffffffffffff81111561153e5761153d611333565b5b61154a858286016114db565b925050602061155b85828601611381565b9150509250929050565b600081519050919050565b600082825260208201905092915050565b60005b8381101561159f578082015181840152602081019050611584565b838111156115ae576000848401525b50505050565b60006115bf82611565565b6115c98185611570565b93506115d9818560208601611581565b6115e2816113cd565b840191505092915050565b6115f681611358565b82525050565b6000819050919050565b61160f816115fc565b82525050565b600061010083016000830151848203600086015261163382826115b4565b9150506020830151848203602086015261164d82826115b4565b9150506040830151848203604086015261166782826115b4565b915050606083015161167c60608601826115ed565b50608083015161168f60808601826115ed565b5060a083015184820360a08601526116a782826115b4565b91505060c083015184820360c08601526116c182826115b4565b91505060e08301516116d660e0860182611606565b508091505092915050565b600060208201905081810360008301526116fb8184611615565b905092915050565b60008060008060008060c087890312156117205761171f61132e565b5b600087013567ffffffffffffffff81111561173e5761173d611333565b5b61174a89828a016114db565b965050602087013567ffffffffffffffff81111561176b5761176a611333565b5b61177789828a016114db565b955050604087013567ffffffffffffffff81111561179857611797611333565b5b6117a489828a016114db565b94505060606117b589828a01611381565b935050608087013567ffffffffffffffff8111156117d6576117d5611333565b5b6117e289828a016114db565b92505060a087013567ffffffffffffffff81111561180357611802611333565b5b61180f89828a016114db565b9150509295509295509295565b600081519050919050565b600082825260208201905092915050565b6000819050602082019050919050565b600061010083016000830151848203600086015261186682826115b4565b9150506020830151848203602086015261188082826115b4565b9150506040830151848203604086015261189a82826115b4565b91505060608301516118af60608601826115ed565b5060808301516118c260808601826115ed565b5060a083015184820360a08601526118da82826115b4565b91505060c083015184820360c08601526118f482826115b4565b91505060e083015161190960e0860182611606565b508091505092915050565b60006119208383611848565b905092915050565b6000602082019050919050565b60006119408261181c565b61194a8185611827565b93508360208202850161195c85611838565b8060005b8581101561199857848403895281516119798582611914565b945061198483611928565b925060208a01995050600181019050611960565b50829750879550505050505092915050565b600060208201905081810360008301526119c48184611935565b905092915050565b600081519050919050565b600082825260208201905092915050565b6000819050602082019050919050565b6000611a0483836115ed565b60208301905092915050565b6000602082019050919050565b6000611a28826119cc565b611a3281856119d7565b9350611a3d836119e8565b8060005b83811015611a6e578151611a5588826119f8565b9750611a6083611a10565b925050600181019050611a41565b5085935050505092915050565b60006020820190508181036000830152611a958184611a1d565b905092915050565b600082825260208201905092915050565b7f4f6e6c7920636f6e7472616374206f776e65722063616e2063616c6c2074686960008201527f732066756e6374696f6e2e000000000000000000000000000000000000000000602082015250565b6000611b0a602b83611a9d565b9150611b1582611aae565b604082019050919050565b60006020820190508181036000830152611b3981611afd565b9050919050565b7f4e487b7100000000000000000000000000000000000000000000000000000000600052603260045260246000fd5b7f4e487b7100000000000000000000000000000000000000000000000000000000600052601160045260246000fd5b6000611ba9826115fc565b9150611bb4836115fc565b925082821015611bc757611bc6611b6f565b5b828203905092915050565b7f4e487b7100000000000000000000000000000000000000000000000000000000600052603160045260246000fd5b6000611c0c826115fc565b91507fffffffffffffffffffffffffffffffffffffffffffffffffffffffffffffffff821415611c3f57611c3e611b6f565b5b600182019050919050565b7f4e487b7100000000000000000000000000000000000000000000000000000000600052602260045260246000fd5b60006002820490506001821680611c9157607f821691505b60208210811415611ca557611ca4611c4a565b5b50919050565b7f4365727469666963617465206e6f7420666f756e642e00000000000000000000600082015250565b6000611ce1601683611a9d565b9150611cec82611cab565b602082019050919050565b60006020820190508181036000830152611d1081611cd4565b9050919050565b7f4f6e6c7920617574686f72697a656420636572746966696572732063616e206360008201527f616c6c20746869732066756e6374696f6e2e0000000000000000000000000000602082015250565b6000611d73603283611a9d565b9150611d7e82611d17565b604082019050919050565b60006020820190508181036000830152611da281611d66565b9050919050565b7f496e76616c69642073747564656e742061646472657373000000000000000000600082015250565b6000611ddf601783611a9d565b9150611dea82611da9565b602082019050919050565b60006020820190508181036000830152611e0e81611dd2565b9050919050565b6000611e2082611565565b611e2a8185611a9d565b9350611e3a818560208601611581565b611e43816113cd565b840191505092915050565b611e57816115fc565b82525050565b60006040820190508181036000830152611e778185611e15565b9050611e866020830184611e4e565b939250505056fea26469706673582212202847864144f26d01ed474d2596dd045a6cabdb21330b6339ce9b4f939764c46b64736f6c63430008090033",
  "linkReferences": {},
  "deployedLinkReferences": {}
}